:040000000BEF00F012
:100008004182FACF2AF0FBCF2BF00DED00F0ABEFD9
:1000180002F00600E9CF2CF0EACF2DF0E1CF2EF068
:10002800E2CF2FF0D9CF30F0DACF31F0F3CF32F082
:10003800F4CF33F0F6CF34F0F7CF35F0F8CF36F011
:10004800F5CF37F0F2A41FD03D50D8A406D0839E38
:10005800838C838A3CC081FF08D03D04D8A407D094
:10006800838E839C838A3B04816E3D2A07D0838ECE
:10007800838C839A3AC081FF000E3D6EB10ED76E15
:10008800E00ED66EF2949EAC27D0C450030B396EA6
:10009800386AC35038123EC00FF03FC010F040C05D
:1000A80011F038C009F039C00AF013EC03F009C0A8
:1000B8000CF00AC00DF00BC00EF008EC01F00CC0FB
:1000C8001BF00DC01CF00EC01DF08EEC00F01BC024
:1000D8007BF01CC07CF09E9C37C0F5FF36C0F8FF53
:1000E80035C0F7FF34C0F6FF33C0F4FF32C0F3FF6A
:1000F80031C0DAFF30C0D9FF2FC0E2FF2EC0E1FFC8
:100108002DC0EAFF2CC0E9FF2BC0FBFF2AC0FAFF75
:10011800419211001DC01FF0206A216A1C341F364D
:1001280001E320801F50296E2950D8A409D0000E61
:100138001B6E000E1C6E000E1D6E000E1E6E120051
:10014800170E1F6E1BC020F01CC021F01DC022F02E
:100158001F28236E04D0D890223221322032232E39
:10016800FAD72050246E1C8EFF0E1B16FF0E1C168D
:10017800000E1D161B50256E1C50266E1D50276E36
:10018800286A8E0E295E29AE16D02950800A8F0F54
:10019800D8B009D0000E1B6E000E1C6E000E1D6E2E
:1001A800000E1E6E1200D8902832273226322532D1
:1001B800293EF9D715D0170E29640FD0000E1B6EF3
:1001C800000E1C6E000E1D6E000E1E6E1200D890E2
:1001D800253626362736283629062950D8A4F7D7B3
:1001E8002450D8B408D0281E271E261E256C000EC1
:1001F80026222722282225C01BF026C01CF027C053
:100208001DF028C01EF012000EC012F0136A146A06
:100218000D34123601E313801250156E1550D8A410
:1002280007D0000E0C6E000E0D6E000E0E6E120042
:1002380011C012F0136A146A1034123601E31380E5
:1002480012501A6E1A50D8A407D0000E0C6E000E69
:100258000D6E000E0E6E12001A507B0F15260EC082
:100268001AF011501A1A800E1A160D8E108EFF0EE3
:100278000F16FF0E1016000E1116000E166E000E49
:10028800176E000E186E070E196E0CA006D00F50D0
:1002980016261050172211501822D8900E320D32FF
:1002A8000C32D8900F3610361136192EEED7090EAB
:1002B800196E0CA006D00F50162610501722115098
:1002C8001822D8900E320D320C32D89018321732CC
:1002D8001632192EEED716C001F017C002F018C05A
:1002E80003F015C004F01AC005F0E7EC01F001C0F6
:1002F8000CF002C00DF003C00EF012006CC067F0E5
:100308006DC068F0000E00016A6F0A0E696F7AEC22
:1003180002F00001675100016E6F000E0001636F6B
:100328000A0E626F6CC060F06DC061F03EEC02F0C6
:1003380060C067F061C068F0000E00016A6F0A0EC5
:10034800696F7AEC02F00001675100016F6F000ECF
:100358000001636F640E626F6CC060F06DC061F085
:100368003EEC02F060C067F061C068F0000E00016A
:100378006A6F0A0E696F7AEC02F00001675100019A
:10038800706F00016E51010D710EF324D96E000ECD
:10039800F420DA6EDF503A6E00016F51010D710ED4
:1003A800F324D96E000EF420DA6EDF503B6E0001A4
:1003B8007051010D710EF324D96E000EF420DA6E1F
:1003C800DF503C6E12000450D8B405D00150021022
:1003D8000310D8A40CD0000E016E000E026E000EA1
:1003E800036E1200042AD890033202320132000E42
:1003F8000114066E000E0214076EFE0E0314086E3A
:10040800065007100810D8B40CD0ECD7042A010EF7
:100418000126000E0222000E0322D8900332023277
:100428000132000E0114066E000E0214076EFF0E54
:100438000314086E065007100810D8B406D0E6D783
:100448000406D89001360236033602BE03D0020EE7
:100458000460F6D704A0029ED89004320450031218
:100468000550D8A4038E01C001F002C002F003C0F9
:1004780003F01200000E0001656F000E646F0001AA
:10048800625100016311D8B42CD0010E0001666FCF
:1004980006D00001D890623763370001662B00014F
:1004A80063AFF7D70001D890643765370001625110
:1004B8000001605D0001635100016159D8A00AD0B4
:1004C800000162510001605F000163510001615B3E
:1004D800000164810001D890633362330001662F04
:1004E800E1D764C060F065C061F012000001695195
:1004F80000016A11D8B426D0010E00016B6F06D036
:100508000001D89069376A3700016B2B00016AAF88
:10051800F7D7000169510001675D00016A510001C8
:100528006859D8A008D0000169510001675F00012F
:100538006A510001685B0001D8906A336933000191
:100548006B2FE7D767C067F068C068F0120000013A
:100558007C6B7B6B3D6A3C6A3B6A3A6A760EF66E48
:10056800060EF76E000EF86E00EE71F010EE0AF04F
:100578000900F5CFEEFFE550E150FAE18A0EF66E7C
:10058800060EF76E000EF86E0900F5CF3EF0090072
:10059800F5CF3FF00900F5CF40F0419041920001BE
:1005A800F9EF02F0000E0001646F000E636F0CD0CB
:1005B800410E0001626FEE0EE82EFED7622FFCD7C7
:1005C80000D00001634B642B000160510001635DA2
:1005D80000016451800A0001626F00016151800AC4
:1005E80000016259D8B01200E3D79280000E936ED2
:1005F8001F0E956E40EC03F025EC03F032EC03F08F
:10060800000E0001616F0A0E606FD6EC02F07BC02D
:100618006CF07CC06DF082EC01F0C282F1D709C0A9
:1006280001F00AC002F0036A8E0E046E000E056E19
:10063800E7EC01F001C009F002C00AF003C00BF0BA
:1006480012000E0EC16E000EC26EA50EC06E9E9CEC
:10065800C280080EE82EFED700F01200080ED56EF4
:10066800B10ED76EE00ED66EF294D58E1200039FAF
:10067800250D9949411F0119F28EF28CF28A9D8C41
:050688001200D7A33EA3
:020000040020DA
:08000000FFFFFFFFFFFFFFFF00
:020000040030CA
:0E000000000C1F1EFF8181FF0FC00FE00F409C
:00000001FF
